:0C0000000C94FB0D0C9400000C9400000C
:10000C000C9400000C9400000C9414180C94000038
:10001C000C94F4160C9400000C9400000C9400004A
:10002C000C9400000C9400000C9400000C94000044
:10003C000C9400000C9400000C9400000C94000034
:10004C000C9400000C9400000507206000000000D8
:10005C00000000040404040400040A0A0A0000005E
:10006C00000A0A1F0A1F0A0A041E050E140F0403B5
:10007C0013080402191806090502150916060402CC
:10008C000000000008040202020408020408080828
:10009C000402000A041F040A000004041F040400E4
:1000AC00000000000604020000001F000000000019
:1000BC000000060600001008040201000E111915BC
:1000CC0013110E0406040404040E0E11100804028D
:1000DC001F1F08040810110E080C0A091F08081F1E
:1000EC00010F1010110E0C02010F11110E1F100830
:1000FC00040202020E11110E11110E0E11111E101E
:10010C0008060006060006060000060600060402A5
:10011C001008040204081000001F001F0000010258
:10012C0004080402010E1110080400040E1110162C
:10013C0015150E0E1111111F11110F11110F111197
:10014C000F0E11010101110E070911111109071FE1
:10015C0001010F01011F1F0101070101010E110116
:10016C000119110E1111111F1111110E04040404A7
:10017C00040E1C08080808090611090503050911D5
:10018C000101010101011F111B1511111111111197
:10019C0013151911110E11111111110E0F11110F3F
:1001AC000101010E1111111509160F11110F05097D
:1001BC00111E01010E10100F1F040404040404117D
:1001CC0011111111110E11111111110A041111112A
:1001DC0015151B1111110A040A111111110A04042D
:1001EC0004041F10080402011F1C04040404041C52
:1001FC000001020408100007040404040407040AA4
:10020C0011000000000000000000001F02040800A4
:10021C0000000000000E101E111E01010D13111123
:10022C000F00000E0101110E1010161911111E00F5
:10023C00000E111F010E0C12020702020200001E1A
:10024C00111E100C01010D131111110400060404F0
:10025C00040E08000C080809060202120A060A120B
:10026C000604040404040E00000B15151111000003
:10027C000D1311111100000E1111110E00000F11B0
:10028C000F0101000016191E101000000D130101C2
:10029C000100000E010E100F0202070202120C00E8
:1002AC0000111111191600001111110A040000118E
:1002BC001115150A0000110A040A11000011111E73
:1002CC00100E00001F0804021F0804040204040896
:1002DC0004040404040404020404080404020215C3
:1002EC0008000000001F11111111111F6E006E008B
:1002FC000000000000E0FFFF010000000000000013
:10030C00000000FFFFFF1F000000000000000000C5
:10031C00E0FF01E0FF010000000000000000FC070E
:10032C000000F80700000000000000007F000C1E19
:10033C00803F00000000000000C00F000C3F00FEDA
:10034C0000000000000000F003808F7300F0030039
:10035C000000000000FC00808F7300C00F00000044
:10036C000000003F00008C7300001F000000000024
:10037C00800F00000C7000007C0000000000C00327
:10038C0000000C3C0000F80000000000F001000030
:10039C000C1E0000E00100000000F80000000C0F33
:1003AC000000C007000000003C0000000C0700002B
:1003BC00000F000000001E060E008C7F0000061EC1
:1003CC00000000008F070F008C7F0080073C0000AE
:1003DC000080C7870F00000000C00778000000C035
:1003EC0003060E000000000006F0000000E001060D
:1003FC000E000000000006E0010000F000060E00F8
:10040C000000000006C00300007800060E0000008B
:10041C00000006800700003800060E0000000000F7
:10042C0006000700001C00060E000000000006007D
:10043C000E00000E00060E000000000006001E005C
:10044C00000F00060E000000000006001C00000754
:10045C0000060600000000000600380080030000C3
:10046C000000000000000000780080030000000085
:10047C000000000000007000C0010000000000003F
:10048C0000000000E000E018380000000000000050
:10049C0000E0E700E0187C0000000000000000E035
:1004AC00CF01701EFE000000000000000060CE01B5
:1004BC00701FE60000000000000000608E03301882
:1004CC00C70000000000000000008E033818C700B1
:1004DC00000000000000000007073818C7000000EB
:1004EC0000000000008007071C18C7000000000077
:1004FC00000000C001061C18C7000000000000002E
:10050C0000E0000E0C18C7000000000000000060A6
:10051C00000E0E18EE0000000000000000F00F0CA2
:10052C000E187E0000000000000000F00F1C0E18DA
:10053C003C000000000000000000001C0600000051
:10054C000000000000000000001807000000000080
:10055C000000000000000018070000000000000070
:10056C000000000000180700000000000000000060
:10057C000000003803000000000000000000000034
:10058C0000380300000000000000000000000038EC
:10059C00830300000000000000000000F030E30FB7
:1005AC0000000000000000000000F831E30E000025
:1005BC000000E00100000000DC31630C00000000D2
:1005CC00F003000000009C31631C00000000F807E1
:1005DC00000000008031631C00000000F8070000E0
:1005EC000000E031E31F00000000F80700000000ED
:1005FC00E031E31F00000000F8070000000080332A
:10060C00030D00000000F003000000008C33630CAD
:10061C0000000000E001000000008C33E30E00003D
:10062C000000000000000000FC33E30700000000A5
:10063C00000000000000F8318303000000000000FF
:10064C0000000000703003000000000000000000FB
:10065C00000000300300000000000000000000005B
:10066C000030030000000000000000000000003813
:10067C000700000000000000000000000038070028
:10068C00000000000000000000000038070000001F
:10069C000000000000000000001806000000000030
:1006AC000000000000000018060000000000000020
:1006BC0000000000001C0E00000000000000000004
:1006CC000000001C0EF00100000000000000000003
:1006DC00070C0CF803000000000000000000070EDF
:1006EC001C9803000000000000000080070E1C98FE
:1006FC00030000000000000000C0070618F803000B
:10070C0000000000000000C0060738F001000000E7
:10071C000000000000E0060738B8030000000000ED
:10072C0000000070060370180300000000000000B9
:10073C0000F08F037018030000000000000000F0B0
:10074C008F03E09803000000000000000000C601C9
:10075C00E0F803000000000000000000E601C0F11A
:10076C0001000000000000000000E600C0010000D5
:10077C00000000000000000070008003000000007A
:10078C000000000000007000800700000000000066
:10079C00000000003800000700000000000000000E
:1007AC0000003C00000E00000000000000000000F3
:1007BC001C00001E00FC0300000000801F000E0047
:1007CC00003C00FC0300000000801F000F000038FC
:1007DC0000C00100000000C001800700007000C0D4
:1007EC000000000000C007C0030000E000E00000B3
:1007FC00000000C01FE0010000C00160000000000C
:10080C0000C01DE0000000C00370000000000000EC
:10081C0018780000008007300000F0030000183C3E
:10082C00000000000F380000F00300C0181E00008C
:10083C0000003C380000380700C01D0F000000000D
:10084C0078380000380000C09F0700000000F01846
:10085C000000F8030080EF0300000000E00300003C
:10086C00F8030000F00100000000C007000038078A
:10087C0000007C0000000000001F00003807000092
:10088C003E0000000000007E0000380700800F00D2
:10089C000000000000F80100380700E0070000002D
:1008AC00000000E00700F00300FC01000000000065
:1008BC0000803F00F001007F0000000000000000FD
:1008CC00FE010000E00F0000000000000000F03FFF
:1008DC000000FF03000000000000000080FFFFFF8D
:1008EC007F00000000000000000000F8FFFF070080
:1008FC0000000000780078000000000000000000FC
:10090C0000000000000000000000000000000000DB
:10091C0000000000000000000000000000000000CB
:10092C000000000000000000000000FCFF0F0000B1
:10093C00000000000000000000F0FFFFFF000000BE
:10094C000000000000000000FFFFFFFF0700000098
:10095C00000000000000E0FFFFFFFF3F0000000070
:10096C000000000000F8FFFFFFFFFF000000000088
:10097C0000000000FEFFFFFFFFFF01000000000071
:10098C00000080FFFFFFFFFFFF07000000000000DA
:10099C0000E0FFFFFFF1FFFF0F0000000000000070
:1009AC00F8FFFF0000F0FF1F00000000000000FC3B
:1009BC00FF0F000000FF3F00000000000000FFFFE1
:1009CC0001000000F87F00000000000080FF3F00E5
:1009DC00000000E0FF000000000000C0FF0F00005E
:1009EC00000080FF010000000000F0FF0300000089
:1009FC000000FE030000000000F8FF0000000000F3
:100A0C0000FC070000000000FC3F0000000000009C
:100A1C00F8070000000000FE0F000000000000E0DE
:100A2C000F0000000000FF070000800F0000C00F47
:100A3C000000000000FF010000FF1F0000801F00ED
:100A4C0000000080FF0000F0FF030000001F00000A
:100A5C000000C07F0000FEFF000000001E00000030
:100A6C0000E03F0080FF3F000000003C0000000061
:100A7C00F01F00E0FF07000000003C00000000F049
:100A8C000F00F8FF00000000003800000000F8071D
:100A9C0000FC3F80817F00007000000000FC030020
:100AAC00FF0F00FFFF00007000000000FC0180FF42
:100ABC000300FCFF01006000200000FE00C0FF00EE
:100ACC0000F0F9030060002000007E00E07F0000D1
:100ADC00F0F9070040006000007F00F01F0000F0FC
:100AEC00F80F004000C000003F00F80F000070FC41
:100AFC000F000000C000801F00FC07000060FE1FFC
:100B0C00000000C001801F00FE01000060FE3F00DD
:100B1C0000008001C00F00FF00C0FF41FE3F00003D
:100B2C00008001C007807F00F8FF0FFC7F000000F1
:100B3C008003E007C07F00FEFF3F78FF000000004D
:100B4C0003E003E03F80FFFFFF801F010000000770
:100B5C00E003E01FC0FFCFFFE7070600000007F02F
:100B6C0003F00FE00F00C0FF030000000007F001CE
:100B7C00F807F0010000FC00000000000EF001F886
:100B8C0007380000000000000000000EF000FC031D
:100B9C000C0000000000008000000EF800FC0302B6
:100BAC000000000000000003000EF800FE01000031
:100BBC0000000000000007001C7800FE010080FF10
:100BCC00FF070000000E001C7800FF0000F8FFFF7C
:100BDC00FF0000000E001C7C00FF0000FFFFFFFF69
:100BEC001F000F1C001C7C807F00E0FFFFFFFFFF3D
:100BFC00C03F1C003C3C807F00F8FF3FC0FFFF0360
:100C0C003F1C003C3C807F00FE1F000080FF071053
:100C1C0038003C3CC03F00FF03000000F8070038E0
:100C2C00003C3CC03FC07F00000000C00F003800FB
:100C3C003C3CC03FE01F00000000003F0038003C7F
:100C4C003CC01FF00700000000007C0038003C1C7A
:100C5C00E01FF8030000000000F80078003C1CE0E6
:100C6C001FF8010000000000E00178003C1CE01FB0
:100C7C00FC0000F0FF0700C00378003C1CE01F7C68
:100C8C000000FFFF7F00800778003C1CE01F3E0047
:100C9C00E0FFFFFF03000F78003C1CE00F3E00FC60
:100CAC007F000000001E38003C1CF00F1E00FF0FE0
:100CBC00000000003C38003C1CF00F1E80FF0300BD
:100CCC000000003838003E1CF00F0FC0FF008003FE
:100CDC0000007038003E1CF00F0FF07F00FC03008A
:100CEC0000703C003E3CF00F0FF01F80FF600000D6
:100CFC00E03C003E38F00F06F80FC03F300000E03B
:100D0C001C003E38F00F06FC07E01F380000E01C0A
:100D1C00001F38F00F06FC07F00F180000E00E0063
:100D2C001F38F01F06FE03F8071C0000E00E001F22
:100D3C0038F01F06FE01FC031E0000E007001F3008
:100D4C00E01F06FE01FC010E0000E007800F70E0C2
:100D5C001F00FF01FE010F0000E003800F70E01F79
:100D6C0000FF00FE000F0000F001C00F60E01F004C
:100D7C00FF00FF000F0000F000C00FE0E03F00FF9D
:100D8C00007F000F00007000C007E0E03F007F0014
:100D9C007F801F00003800E007C0E03F007F807FAD
:100DAC00801F00000800E003C0C03F007F803F8030
:100DBC001F00000000F00380C17F007F803F801F78
:100DCC0000000000F00380C17F007F803F003F00E7
:100DDC00000000F80100C3FF007F803F003F0000CF
:100DEC000000FC010083FF007F803F007F000000BB
:100DFC0000FC000082FF017E803F00FE000000002E
:100E0C00FE000084FF017E003F00FE000000007F1A
:100E1C00000004FF037E003F00FC010000007F0087
:100E2C000000FF037C003F00F8030000803F00003F
:100E3C0000FF07FC003E00F00F0000C01F00000088
:100E4C00FE07F8007E00E03F0000E01F000000FEFF
:100E5C000FF0007E0080FF8301F00F000000FC1FEC
:100E6C00F0007C0000FE7F00F80F000000FC3FE06B
:100E7C0001780000F00F00FC07000000F87FC001B3
:100E8C00F80000000000FE03000000F87F8001F075
:100E9C000000000000FF01000000F0FF0003F00163
:100EAC0000000080FF00000000F0FF0300E00100E4
:100EBC000000E0FF00000000E0FF0700C00300009E
:100ECC0000F07F00000000C0FF0F00800700000052
:100EDC00FC3F00000000C0FF1F000006000000FEE9
:100EEC001F0000000080FF7F00000C000080FF0F3F
:100EFC000000000000FFFF0100100000E0FF0700F1
:100F0C0000000000FEFF0700000000F8FF030000D7
:100F1C00000000FCFF1F00000000FFFF00000000AD
:100F2C000000F8FF7F000000E0FF7F0000000000E1
:100F3C0000F0FFFF030000FCFF3F0000000000007A
:100F4C00E0FFFF7F00F0FFFF0F00000000000080BB
:100F5C00FFFFFFFFFFFFFF0700000000000000FF86
:100F6C00FFFFFFFFFFFF0100000000000000FCFF7F
:100F7C00FFFFFFFF7F0000000000000000F0FFFFFC
:100F8C00FFFFFF3F0000000000000000C0FFFFFF5C
:100F9C00FFFF07000000000000000000FFFFFFFF44
:100FAC00FF01000000000000000000F8FFFFFF3F01
:100FBC000000000000000000000080FFFFFF0300A5
:100FCC0000000000000000000000F0FF1F00000007
:100FDC000000000000000000000000000000000005
:100FEC0000000000000000000000000000000000F5
:100FFC0000000000000000000000000000000000E5
:10100C0078007800000000000000000000000000E4
:10101C0000000000000000000000000000000000C4
:10102C0000000000000000000000000000000000B4
:10103C0000000000000000000000000000000000A4
:10104C000000000000000000000000000000000094
:10105C000000000000000000000000000000000084
:10106C000000000000000000000000000000000074
:10107C000000000000000000000000000000000064
:10108C00000000000000000000380000F803000021
:10109C000000000000000000380000F8070000000D
:1010AC0000000000000000380000F80F00000000F5
:1010BC0000000000000038000038EFF7C7DFFFE742
:1010CC00FFE3FFE3C73F000038EFFFEFDFFFEFFF69
:1010DC00E7FFF3EF3F0000B8EF7FEFCE7FEFFFE7C6
:1010EC00FF73EF3F0000F8E738EECE83EF39E79C53
:1010FC00FBEF3C0000F8E338EECFF1EF39E79CFB57
:10110C00EF38000038E038EECFF1EF39E79CFBEF19
:10111C0038000038E078EFC071EE39E79C7BE03D99
:10112C00000038E0F8EFDFF1EF39E79CF3EF3F0018
:10113C000038E0F0E7DFF1EF39E79CF3CF3F000038
:10114C000000C0F11CE000000000C08303000000A0
:10115C000000F01F00000000000000000000000074
:10116C0000F01F0000000000000000000000000064
:10117C00C00700000000000000000000000000009C
:10118C000000000000000000000000000000000053
:10119C000000000000000000000000000000000043
:1011AC000000000000000000000000000000000033
:1011BC000000000000000000000000000000000023
:1011CC000000000000000000000000000000000013
:1011DC000000000000000000000000000000000003
:1011EC0000000000000000000000000000000000F3
:1011FC00000000000000000000F8030000000000E8
:10120C000000000000000000F807000000000000D3
:10121C0000000000000000F80F00000000000000BB
:10122C00000000000000387F1C00000000000000DF
:10123C000000000000B8F71C0000000000000000D7
:10124C0000000000F8E71C00000000000000000097
:10125C00000000F8EF1F000000000000000000007C
:10126C00000038EF0F00000000000000000000003C
:10127C000038CE0F0000000000000000000000004D
:10128C0038CF0F000000000000000000000000F844
:10129C00CF07000000000000000000000000F887ED
:1012AC0007000000000000000000000000008007A4
:1012BC00000000000000000000000000008003009F
:1012CC00000000000000000000000000C00300004F
:1012DC000000000000000000000000C00100000041
:1012EC0000000000000000000000000000000000F2
:1012FC0000000000000000000000000000000000E2
:10130C0000000000000000000000000000000000D1
:10131C0000000000000000000000000000000000C1
:10132C000000000000FEFF3F000000000000000075
:10133C0000000000FFFF3F00000000000000000064
:10134C00000000FFFF7F0000000000000000000014
:10135C000000FFFF7F000000000000000000000004
:10136C0000FFFF7F000000000000000000000000F4
:10137C00FFFF3F000000000000000000000000FF25
:10138C000100000000000000000000000000FE0151
:10139C0000000000000000000000000000FC030042
:1013AC00000000000000000000000000FC0700002E
:1013BC000000000000000000000000F80F0000001A
:1013CC0000000000000000000000F01F0000000002
:1013DC00000000000000000000E03F0000000000E2
:1013EC000000000000000000C07F000000000000B2
:1013FC0000000000000000807F00000000000000E2
:10140C0000000000000080FF000000000000000051
:10141C00000000000000FF010000000000000000C0
:10142C000000000000FE03000000000000000000AF
:10143C0000000000FC07000000000000000000009D
:10144C00000000F807000000000000000000000091
:10145C000000F80700000000000000000000000081
:10146C0000FC07000000000000000000000000006D
:10147C00FE0300000000000000000000000000FE61
:10148C000100000000000000000000000000FF0050
:10149C00000000000000000000000000807F000041
:1014AC000000000000000000000000C07F000000F1
:1014BC0000000000000000000000E03F0000000001
:1014CC00000000000000000000F01F000000000001
:1014DC000000000000000000F00F00000000000001
:1014EC0000000000000000F80700000000000000F1
:1014FC00000000000000FC030000000000000000E1
:10150C000000000000FE03000000000000000000CE
:10151C0000000000FF0100000000000000000000BF
:10152C00000000FF000000000000000000000000B0
:10153C000000FFFF7F000000000000000000000022
:10154C0000FFFF7F00000000000000000000000012
:10155C00FFFF7F000000000000000000000000FF03
:10156C00FF7F000000000000000000000000FFFFF3
:10157C007F000000000000000000000000FFFF7F63
:10158C00000000000000000000000000000000004F
:10159C00000000000000000000000000000000003F
:1015AC00000000000000000000000000000000002F
:1015BC00000000000000000000000000000000001F
:1015CC00000000000000000000000000000000000F
:1015DC0000000000000000000000000000000000FF
:1015EC0000070E700000000000000000C33C00006B
:1015FC000F0FFC0000000000000000E7FC01001FC2
:10160C000FFC0000000000000000E7FC01009F0F31
:10161C001C0000000000000000E7DC03009F0F3CF2
:10162C000000000000000000FFDC0300FB0FFC00CA
:10163C0000000000000000FFFC0100FB0FF801009F
:10164C00000000000000FFFC0100FB0FE0010000A7
:10165C000000000000E7FC0000F3CEC60100000013
:10166C0000000000E71C0000F3CEFF0100000000AA
:10167C00000000E71C0000F3CEFF0000000000009B
:10168C000000E71C000000C0380000000000000053
:10169C00000000000000000000000000000000003E
:1016AC00000000000000000000000000000000002E
:1016BC00000000000000000000000000000000001E
:1016CC00000000000000000000000000000000000E
:1016DC0000000000000000000000000000000000FE
:1016EC0000000000000000000000000000000000EE
:1016FC0000000000000000000000000000000000DE
:10170C0000000000000000000000000000010307C2
:10171C000F1F3F7FFF000200610000001F003C0014
:10172C005B0079009800B600D500F400120131017D
:10173C004F0100001F003B005A0078009700B500D5
:10174C00D400F300110130014E011E001F001E00D9
:10175C001F001F001E001F001E001F001F001C008A
:10176C001F0060026A0274027E02880292029C02CE
:10177C00A602B002BA02C402CE02D802E202EC0205
:10178C00F60200030A03140353756E64617920207A
:10179C0020004D6F6E6461792020200054756573B4
:1017AC00646179202000576564656E73646179000B
:1017BC00546875727364617920004672696461794A
:1017CC0020202000536174757264617920004A6195
:1017DC006E7561727920200046656272756172794E
:1017EC0020004D61726368202020200041707269D6
:1017FC006C20202020004D6179202020202020000A
:10180C004A756E652020202020004A756C792020B6
:10181C0020202000417567757374202020005365CB
:10182C007074656D626572004F63746F62657220CF
:10183C0020004E6F76656D626572200044656365AD
:10184C006D62657220002D2D2D2D2D2D2D2D2D2D04
:10185C002D2D2D2D2D2D2D2D2D2D2D2B2B2D2D2DB0
:10186C002D2D2D2D2D2D2D2D2D2D2D2D2D2D002DC9
:10187C002D2D2D2D2D2D2D2D2D2D2D2D2D2D2D2D8C
:10188C002D2B2B2D2D2D2D2D2D2D2D2D2D2D2D2D80
:10189C002D2D2D2D2D2D2D002D2D2D2D2D2D2D2D99
:1018AC002D2D2D2D2D2D2D2B2B2D2D2D2D2D2D2D60
:1018BC002D2D2D2D2D2D2D2D2D2D2D2D2D2D2D2D4C
:1018CC00002D2D2D2D2D2D2D2D2D2D2D2D2D2D2D69
:1018DC002D2D2D2D2D2D2D2D2D2D2D2D2D2D2D2D2C
:1018EC002D2D2D2D2D2D2D2B2B002D2D2D2D2D2D4D
:1018FC002D2D2D2D2D2D2D2D2D2D2D2D2D2D2D2D0C
:10190C002D2D2D2D2D2D2D2D2D2D2D2D2D2B2B2DFF
:10191C002D2D002D2D2D2D2D2D2D2D2D2D2D2D2D18
:10192C002D2D2D2D2D2D2D2D2D2D2D2D2D2D2D2DDB
:10193C002D2B2B2B2B2D2D2D2D2D2D002D2D2D2D00
:10194C002D2D2D2D2B2B2D2D2D2D2D2D2D2D2D2DBF
:10195C002D2D2D2D2D2D2D2D2D2D2D2D2D2D2D2DAB
:10196C002D2D2D2D002D2D2D2D2D2B2B2D2D2D2DCC
:10197C002D2D2D2D2D2D2D2D2D2D2D2D2D2D2D2D8B
:10198C002D2D2D2D2D2D2D2D2D2D2D2D2D002B2BAC
:10199C002B2B2D2D2D2D2D2D2D2D2D2D2D2D2D2D6F
:1019AC002D2D2D2D2D2D2D2D2D2D2D2D2D2D2D2D5B
:1019BC002D2D2D2D2D2D002D2D2D2D2D2D2D2D2D78
:1019CC002D2D2D2D2D2D2D2D2D2D2D2D2D2D2D2D3B
:1019DC002D2D2D2D2D2D2D2D2D2D2D2D2D2D2D0058
:1019EC002D2D2D2D2D2D2D2D2D2D2D2D2D2D2D2D1B
:1019FC002D2D2D2D2D2D2D2D2B2B2D2D2D2D2D2D0F
:101A0C002D2D2D2D2D2D2D2D002A20253032693AEE
:101A1C00253032693A2530326920414D202A002A7E
:101A2C0020253032693A253032693A253032692026
:101A3C00504D202A002A20253032693A253032694F
:101A4C003A25303269202020202A00253034692F95
:101A5C00253032692F2530326900202020202020AB
:101A6C002020202020200053657474696E67204D5F
:101A7C006F6465002D4E414E000001002D4E414E0D
:101A8C0000494E46000001000200221701003207F7
:101A9C0024170A00600294170A006A029E170A00B3
:101AAC007402A8170A007E02B2170A008802BC173B
:101ABC000A009202C6170A009C02D0170E00820779
:101ACC006E170A00A602DA170A00B002E4170A0021
:101ADC00BA02EE170A00C402F8170A00CE02021866
:101AEC000A00D8020C180A00E20216180A00EC02CE
:101AFC0020180A00F6022A180A00000334180A00FB
:101B0C000A033E180A0014034818180090077C17A3
:101B1C0029001E035218020047039C172900490391
:101B2C007B1829007203A41829009B03CD182900E7
:101B3C00C403F6182900ED031F19290016044819CF
:101B4C0029003F047119290068049A19290091048D
:101B5C00C3190200BA04F4180200BC04F418020001
:101B6C00BE049C172900C00452180200E9049C17FB
:101B7C002900EB047B1829001405A41829003D0545
:101B8C00EC1929006605CD1829008F05F6182900D7
:101B9C00B8051F192900E105481929000A06711911
:101BAC00290033069A1929005C06C3190200850620
:101BBC00F41802008706F418020089069C17290005
:101BCC008B06C3190D00B406661A0200C1069C17D9
:101BDC000200C3069C170D00C506731A2900D20615
:101BEC00C3190100A807861A0000F894EE27ECBB75
:101BFC00F1E0FBBFEBBFE5BF8DE0A2E0BB27ED93AF
:101C0C008A95E9F780E098E0A0E6ED930197E9F773
:101C1C00E2E9FAE185919591009761F0A591B59172
:101C2C0005901590BF01F00105900D920197E1F719
:101C3C00FB01F0CFEFE5EDBFE8E0EEBFC0E6D2E090
:101C4C000C94F1180E943927E4E6F0E00E94442F2E
:101C5C00309741F0A881B981E4E0F0E00E94442F74
:101C6C00309789F0A881B981E4E6F0E00E94442F16
:101C7C00309741F4A881B981E0E9F1E00E94442F4A
:101C8C00309709F003C0E1E0F0E075C1E0E0F0E06E
:101C9C0072C1BA93AA93EF97239780E3A6E0B0E0C2
:101CAC00E6E2F7E10E94E72F0E94D92FEFE4F0E083
:101CBC00EEAFFFAF0E943E27C5DF309729F00E94A0
:101CCC004527DE011C9604C00E944527DE01949630
:101CDC00EE0FFF1F0E944D27DE01A65BBF4F0D903C
:101CEC00BC91A02D0E9452270E943E271197AADF7B
:101CFC00309719F0EBE0F0E002C0EAE0F0E0ECAF76
:101D0C00FDAFEEADFFAD0E945A27EA17FB070CF0B2
:101D1C0048C0AEADBFAD0E946127EA1BFB0B0E9411
:101D2C006827AB3BE0E0BE07D4F40E946E270E940C
:101D3C00442F309741F40E946E270E940E2F9F0172
:101D4C000FE110E00BC00E946E270E940E2F3196FF
:101D5C009F010E946E270E94442F8F0118C00E9481
:101D6C006127EA5BF0400E9468270E947227309737
:101D7C0039F40E94772736969F010EE110E007C0D8
:101D8C000E94772737969F010E947D278F01FE01C5
:101D9C00E85BFF4F0190F081E02DED56F240AF0172
:101DAC0021C0ECADFDAD0E945A270E9452270E9423
:101DBC007D27309739F40E94772739969F010EE1E1
:101DCC0010E007C00E9477273A969F010E947D275A
:101DDC008F01FE01E85BFF4F0190F081E02DEE5684
:101DEC00F240AF014E835F83288739870A871B87B0
:101DFC00FE013696DE01AE5BBF4F86E00E94C22F1D
:101E0C00FE01EE5BFF4F86E00E94E02FEF962F96CF
:101E1C000895BA93AA93A89788E1A0E0B0E0E6E50C
:101E2C00F7E10E94E72F0E94D92FEEA5FFA5E359F9
:101E3C00FD4FE8A3F9A3A8A1B9A104DFE130A0E00C
:101E4C00FA0719F40CE010E002C00BE010E0A8A1B6
:101E5C00B9A11196F7DEE130A0E0FA0729F4EA8D7A
:101E6C00FB8D3196EA8FFB8FAAA9BBA9119724F0A1
:101E7C00AAA9BBA917970CF008C0EAA9FBA931972E
:101E8C00AFE1B0E00E94E32E09C0EAA9FBA93797A5
:101E9C00AEE1B0E00E94E32EE654FF4FA8A9B9A929
:101EAC00EA0FFB1FAF01041715075CF0EFE1F0E040
:101EBC00E01BF10BE40FF51FEEA3FFA3E3E0F0E052
:101ECC0028C0FA01E01BF10B9F01E0E0EE8FEF8FD1
:101EDC000E947F27E217F30754F40E947F272E1BE2
:101EEC003F0BEE8DFF8D3196EE8FFF8FF1CF2EA332
:101EFC003FA3AE8DBF8D19974CF0EE8DFF8D3897AB
:101F0C00ECA3FDA3E8A1F9A1319607C0EE8DFF8DDE
:101F1C003496ECA3FDA3E8A1F9A1EAA3FBA3FE016F
:101F2C00B296DE01989686E00E94C22FFE01B8960A
:101F3C0086E00E94E02FE4960895BA93AA9320FCC1
:101F4C001CC0A881B98114972CF0E881F9813197D4
:101F5C00E883F983A881B981139779F4A0913207AA
:101F6C00A13611F4E0E705C0A0913207A03719F4AF
:101F7C00E1E6E093320722960895E881F9813097E3
:101F8C0009F0E6C0EEE1F0E0E415F5050CF0DBC07D
:101F9C000E9486270CF4D6C0F30131963F018824A9
:101FAC00992420FC76C0A0913207A13619F40E9426
:101FBC0090270CF404C0E0E7E093320769C0A091CD
:101FCC003207A03719F40E9495270CF404C0E1E005
:101FDC00F0E03F015DC0A0913207A03719F40E94D8
:101FEC0090270CF455C00E949A2711F40E94B32735
:101FFC000E94B92721F0E230A0E0FA0709F404C0EE
:10200C00E330A0E0FA0709F404C0E430A0E0FA07DA
:10201C0009F404C0E530A0E0FA0709F404C0E63086
:10202C00A0E0FA0751F40E94C127909729F40E946E
:10203C00C62711F40E94D9272BC0E730A0E0FA077D
:10204C0021F0E830A0E0FA0709F404C0E930A0E080
:10205C00FA0709F404C0EA30A0E0FA0709F404C056
:10206C00EB30A0E0FA0751F40E94C1275F9729F4E6
:10207C000E94C62711F40E94D9270AC0EC30A0E0B8
:10208C00FA0731F40E94C1275E9711F40E94E727EA
:10209C0059C00E94EE270CF455C00E94F32711F48E
:1020AC000E94B3270E94B92721F0E230A0E0FA0782
:1020BC0009F404C0E330A0E0FA0709F404C0E430EA
:1020CC00A0E0FA0709F404C0E530A0E0FA0709F42F
:1020DC0004C0E630A0E0FA0751F40E94C1275F97D4
:1020EC0029F40E94C62711F40E94D9272BC0E7308F
:1020FC00A0E0FA0721F0E830A0E0FA0709F404C0E8
:10210C00E930A0E0FA0709F404C0EA30A0E0FA07CD
:10211C0009F404C0EB30A0E0FA0751F40E94C12787
:10212C005E9729F40E94C62711F40E94D9270AC091
:10213C00EC30A0E0FA0731F40E94C1275D9711F44E
:10214C000E94E72702C0442455240E940928DCC2BF
:10215C00E130A0E0FA0709F0E2C0F40131964F013A
:10216C00ECE3F0E08E169F060CF4D6C0F30131962A
:10217C003F018824992420FC76C0A0913207A13617
:10218C0019F40E9490270CF404C0E0E7E0933207A6
:10219C0069C0A0913207A03719F40E9495270CF45E
:1021AC0004C0E1E0F0E03F015DC0A0913207A03730
:1021BC0019F40E9490270CF455C00E949A2711F430
:1021CC000E94B3270E94B92721F0E230A0E0FA0761
:1021DC0009F404C0E330A0E0FA0709F404C0E430C9
:1021EC00A0E0FA0709F404C0E530A0E0FA0709F40E
:1021FC0004C0E630A0E0FA0751F40E94C127909782
:10220C0029F40E94C62711F40E94D9272BC0E7306D
:10221C00A0E0FA0721F0E830A0E0FA0709F404C0C6
:10222C00E930A0E0FA0709F404C0EA30A0E0FA07AC
:10223C0009F404C0EB30A0E0FA0751F40E94C12766
:10224C005F9729F40E94C62711F40E94D9270AC06F
:10225C00EC30A0E0FA0731F40E94C1275E9711F42C
:10226C000E94E72759C00E94EE270CF455C00E942B
:10227C00F32711F40E94B3270E94B92721F0E23012
:10228C00A0E0FA0709F404C0E330A0E0FA0709F46F
:10229C0004C0E430A0E0FA0709F404C0E530A0E083
:1022AC00FA0709F404C0E630A0E0FA0751F40E94E2
:1022BC00C1275F9729F40E94C62711F40E94D927E1
:1022CC002BC0E730A0E0FA0721F0E830A0E0FA07D5
:1022DC0009F404C0E930A0E0FA0709F404C0EA30BC
:1022EC00A0E0FA0709F404C0EB30A0E0FA0751F4BF
:1022FC000E94C1275E9729F40E94C62711F40E9400
:10230C00D9270AC0EC30A0E0FA0731F40E94C127AB
:10231C005D9711F40E94E7270E940928F5C1E2306D
:10232C00A0E0FA0709F0D3C0F30131963F0120FC7D
:10233C0075C0A0913207A13619F40E9490270CF4B5
:10234C0004C0E0E7E093320768C0A0913207A037E1
:10235C0019F40E9495270CF404C0E1E0F0E03F0171
:10236C005CC0A0913207A03719F40E9490270CF49E
:10237C0054C00E94502811F40E94B327E1E6E09368
:10238C003207662477240E94B92721F0E230A0E0BE
:10239C00FA0709F404C0E330A0E0FA0709F404C01A
:1023AC00E430A0E0FA0709F404C0E530A0E0FA0735
:1023BC0009F404C0E630A0E0FA0739F40E94C12702
:1023CC00909711F40E94642828C0E730A0E0FA0727
:1023DC0021F0E830A0E0FA0709F404C0E930A0E0ED
:1023EC00FA0709F404C0EA30A0E0FA0709F404C0C3
:1023FC00EB30A0E0FA0739F40E94C1275F9711F483
:10240C000E9464280AC0EC30A0E0FA0731F40E9464
:10241C00C1275E9711F40E94E72756C00E94EE2751
:10242C000CF452C00E94F32711F40E94B3270E94AF
:10243C00B92721F0E230A0E0FA0709F404C0E33038
:10244C00A0E0FA0709F404C0E430A0E0FA0709F4AC
:10245C0004C0E530A0E0FA0709F404C0E630A0E0BF
:10246C00FA0751F40E94C127909729F40E94C627BD
:10247C0011F40E94D92728C0E730A0E0FA0721F018
:10248C00E830A0E0FA0709F404C0E930A0E0FA074C
:10249C0009F404C0EA30A0E0FA0709F404C0EB30F8
:1024AC00A0E0FA0739F40E94C1275F9711F40E944B
:1024BC0064280AC0EC30A0E0FA0731F40E94C1276E
:1024CC005E9711F40E94E7270E9409281DC1E33092
:1024DC00A0E0FA0709F052C00E94502811F40E94A3
:1024EC00B3270E94B92721F0E230A0E0FA0709F4E3
:1024FC0004C0E330A0E0FA0709F404C0E430A0E023
:10250C00FA0709F404C0E530A0E0FA0709F404C0A6
:10251C00E630A0E0FA0739F40E94C127909711F435
:10252C000E94642828C0E730A0E0FA0721F0E830C8
:10253C00A0E0FA0709F404C0E930A0E0FA0709F4B6
:10254C0004C0EA30A0E0FA0709F404C0EB30A0E0C4
:10255C00FA0739F40E94C1275F9711F40E9464288E
:10256C000AC0EC30A0E0FA0731F40E94C1275E9754
:10257C0011F40E94E7270E940928C6C0E430A0E0AD
:10258C00FA0779F4A8E2B7E00E947228A091280714
:10259C00B09129071D9711F40E94D9270E94092890
:1025AC00B3C0E530A0E0FA0739F4AAE2B7E00E9424
:1025BC0072280E940928A8C0E630A0E0FA0709F0AA
:1025CC0063C00E947828AEE1B7E00E947228A09107
:1025DC001E07B0911F07179711F40E94B3270E9492
:1025EC007B28E130A0E0FA0721F0E330A0E0FA0705
:1025FC0009F404C0E530A0E0FA0709F404C0E730A0
:10260C00A0E0FA0709F404C0E830A0E0FA0709F4E6
:10261C0004C0EA30A0E0FA0709F404C0EC30A0E0F2
:10262C00FA0761F40E948028909739F40E9485285B
:10263C000E948E2811F40E94942823C0E630A0E05A
:10264C00FA0721F0E430A0E0FA0709F404C0E930FD
:10265C00A0E0FA0709F404C0EB30A0E0FA0739F463
:10266C000E9480285F9711F40E9485280AC0E230EE
:10267C00A0E0FA0731F40E9480285E9711F40E94C2
:10268C0085280E949D2840C0E730A0E0FA0761F43D
:10269C00AEE2B7E00E9472280E948E2811F40E94CC
:1026AC0094280E949D2830C0E830A0E0FA0739F445
:1026BC00A0E3B7E00E9472280E949D2825C0E93053
:1026CC00A0E0FA0761F4AEE2B7E00E9472280E9423
:1026DC008E2811F40E9494280E949D2815C0EA307F
:1026EC00A0E0FA0789F4AEE1B7E00E947228A0914D
:1026FC001E07B0911F07179711F40E94B3270E9471
:10270C00E128DF010E94401E0E94EE28DF010E949A
:10271C00401EFEC0BA93AA9320FE79C0E881F981CD
:10272C00309759F40E94F928AEE1B3E00E94FE28DC
:10273C00EEE1EA93A7E4B3E067C0E130A0E0FA076A
:10274C0029F40E94F928A9E4B3E05EC0E230A0E0CD
:10275C00FA0729F40E94F928A2E7B3E055C0E33048
:10276C00A0E0FA0729F40E94F928ABE9B3E04CC0C9
:10277C00E430A0E0FA0729F40E94F928A4ECB3E0B5
:10278C0043C0E530A0E0FA0729F40E94F928ADEE29
:10279C00B3E03AC0E630A0E0FA0729F40E94F92829
:1027AC00A6E1B4E031C0E730A0E0FA0729F40E94BA
:1027BC00F928AFE3B4E028C0E830A0E0FA0729F428
:1027CC000E94F928A8E6B4E01FC0E930A0E0FA079F
:1027DC0059F40E94F928A1E9B4E00E94FE28E4E132
:1027EC00EA93AAEBB4E010C0EA30A0E0FA0771F467
:1027FC00E0E0EA93EEE1EA93ACEBB4E00E94FE2851
:10280C00E4E1EA93AEEBB4E00E94401E81C0E881A3
:10281C00F981309759F40E94F928A0ECB4E00E9499
:10282C00FE28EEE1EA93A9EEB4E070C0E130A0E03E
:10283C00FA0729F40E94F928ABEEB4E067C0E23045
:10284C00A0E0FA0729F40E94F928A4E1B5E05EC0E3
:10285C00E330A0E0FA0729F40E94F928ADE3B5E0D3
:10286C0055C0E430A0E0FA0729F40E94F928A6E646
:10287C00B5E04CC0E530A0E0FA0729F40E94F92835
:10288C00AFE8B5E043C0E630A0E0FA0729F40E94B7
:10289C00F928A8EBB5E03AC0E730A0E0FA0729F434
:1028AC000E94F928A1EEB5E031C0E830A0E0FA07AB
:1028BC0029F40E94F928AAE0B6E028C0E930A0E08B
:1028CC00FA0729F40E94F928A3E3B6E01FC0EA3006
:1028DC00A0E0FA0759F40E94F928ACE5B6E00E9492
:1028EC00FE28E4E1EA93A5E8B6E010C0EB30A0E0E6
:1028FC00FA0771F4E0E0EA93EEE1EA93A7E8B6E0B8
:10290C000E94FE28E4E1EA93A9E8B6E00E94401E8A
:10291C0022960895CC24DD24EAE0F0E03F01EBE3BD
:10292C00F0E04F01E2E3F0E02F01E0E7E093320743
:10293C00E89420F8EFE0F0E00E940329E5E0F0E0F5
:10294C000E940829E0EEF7E00E940D29EAE1F0E090
:10295C00E0932607F0932707E2E0F0E0E0932807E6
:10296C00F0932907E3E7F5E0E0932A07F0932B07B0
:10297C000E9412290E9417290E942A29FA93EA938D
:10298C000E942F29FA93EA93A0917C07B0917D07BE
:10299C0080D9A6E7B7E00E94C22F089521FE0895C2
:1029AC0020FC13C05301A0913207A13629F40E94D8
:1029BC003429E5E1FAE104C00E943429EBE2FAE1A2
:1029CC00FA93EA930E94392910C00E944D2924F4ED
:1029DC00F3013C975F0101C053010E943429E1E4EB
:1029EC00FAE1FA93EA930E943929E0E50E94522910
:1029FC00E0912C07F0912D07E0938007F09381076D
:102A0C000E947B28E0937E07F0937F07E0913007CC
:102A1C00F0913107E0937C07F0937D070E942F29FA
:102A2C000E9459290E945B290E943429E7E5FAE1AA
:102A3C00FA93EA93E0913007F09131070E946129F3
:102A4C000E947B280E946129E0912C07F0912D07B0
:102A5C000E9461298CE00E94CE246096E0E00E94E6
:102A6C0052290E943429E7E5FAE1FA93EA93E091BE
:102A7C002A07F0912B070E9461290E9412290E94BB
:102A8C006129E0912607F09127070E9461298CE0CB
:102A9C000E94CE246096E4EB0E9452290E94EE28FC
:102AAC00DF010E94401E0E94E128DF010E94401EAF
:102ABC0022FE04C00E9466292DDE06C00E94F92861
:102ACC00ABE8B6E00E94401E0E946B290E94D12503
:102ADC00A0912007B09121070E948629E09342071C
:102AEC00F09343076093440770934507E0912007E8
:102AFC00F09121070E94852EFF93EF930E946B2982
:102B0C000E944925AF91BF910E948629E093460708
:102B1C00F09347076093480770934907E0E0E09310
:102B2C00FB060E948D290E9496290E94D42F39F40D
:102B3C000E949F290E94A8290E94D42F79F00E94FC
:102B4C00B1290E9496290E94C2290E94CB290E9479
:102B5C00A8290E94C229AE2F0E94AA1EE1E0E09390
:102B6C00FB060E94B129A0914207B09143078091C6
:102B7C004407909145070E94C2290E94CB29A0913D
:102B8C004607B091470780914807909149070E94EA
:102B9C00C229AE2F0E94AA1E0E949F29E0934E07C5
:102BAC00F0934F0760935007709351070E948D2943
:102BBC00E0934A07F0934B0760934C0770934D07D3
:102BCC000E94D1290E94D125A0912207B091230700
:102BDC000E948629E0935207F093530760935407A1
:102BEC0070935507E0912207F09123070E94852EE0
:102BFC00FF93EF930E94D1290E944925AF91BF9179
:102C0C000E948629E0935607F09357076093580764
:102C1C0070935907E0E0E093FB060E94042A0E949F
:102C2C000D2A0E94D42F39F40E94162A0E941F2AC2
:102C3C000E94D42F79F00E94282A0E940D2A0E940B
:102C4C00C2290E94CB290E941F2A0E94C229AE2FA2
:102C5C000E94AA1EE1E0E093FB060E94282AA091A4
:102C6C005207B091530780915407909155070E94D9
:102C7C00C2290E94CB29A0915607B0915707809189
:102C8C005807909159070E94C229AE2F0E94AA1E84
:102C9C000E94162AE0936207F0936307609364071F
:102CAC00709365070E94042AE0936607F093670708
:102CBC0060936807709369070E94392A0E94D12596
:102CCC00A0912407B09125070E948629E0935A070A
:102CDC00F0935B0760935C0770935D07E0912407AA
:102CEC00F09125070E94852EFF93EF930E94392ABD
:102CFC000E944925AF91BF910E948629E0935E07FF
:102D0C00F0935F076093600770936107E0E0E093D6
:102D1C00FB060E946C2A0E94752A0E94D42F39F45B
:102D2C000E947E2A0E94872A0E94D42F79F00E944A
:102D3C00902A0E94752A0E94C2290E94CB290E94C7
:102D4C00872A0E94C229AE2F0E94AA1EE1E0E093BE
:102D5C00FB060E94902AA0915A07B0915B078091C4
:102D6C005C0790915D070E94C2290E94CB29A0911B
:102D7C005E07B0915F0780916007909161070E9498
:102D8C00C229AE2F0E94AA1E0E946C2AE0936E07E5
:102D9C00F0936F0760937007709371070E947E2AFF
:102DAC00E0936A07F0936B0760936C0770936D0761
:102DBC000895689423F80E94761AE89421F80E94EA
:102DCC00A12AE0E0F9E00E94A52AE8E7EA93E0E016
:102DDC00EA93ECE0F0E10E94A52A08950A921A9277
:102DEC00FA926A937A938A939A93AA93BA93EA93F0
:102DFC00FA93EFB7EA93F20131962F01ECE3F0E08E
:102E0C004E165F060CF4FAC00E9486270CF4F6C02E
:102E1C0088249924F30131963F0120FC8CC0A091A9
:102E2C003207A13619F40E944D2909F004C0E0E7DD
:102E3C00E09332077FC0A0913207A03729F4EDE070
:102E4C00F0E0E615F70509F001C071C0A09132075A
:102E5C00A03719F40E944D2909F05FC0E1E6E09318
:102E6C0032070E9478280E94502811F40E94B32740
:102E7C000E94B92721F0E230A0E0FA0709F404C05F
:102E8C00E330A0E0FA0709F404C0E430A0E0FA074C
:102E9C0009F404C0E530A0E0FA0709F404C0E630F8
:102EAC00A0E0FA0739F40E94C127909711F40E9410
:102EBC00642828C0E730A0E0FA0721F0E830A0E051
:102ECC00FA0709F404C0E930A0E0FA0709F404C0D9
:102EDC00EA30A0E0FA0709F404C0EB30A0E0FA07EE
:102EEC0039F40E94C1275F9711F40E9464280AC02C
:102EFC00EC30A0E0FA0731F40E94C1275E9711F480
:102F0C000E94E7270E9412290E9417290E942F294C
:102F1C000E9459290E945B290DC0A0913207A1364D
:102F2C0029F4EDE0F0E0E615F70509F003C0E1E067
:102F3C00F0E03F0163C0E8E1F0E0E615F70509F0C9
:102F4C005DC0662477240E9478280E94502811F4D2
:102F5C000E94B3270E94B92721F0E230A0E0FA07C3
:102F6C0009F404C0E330A0E0FA0709F404C0E4302B
:102F7C00A0E0FA0709F404C0E530A0E0FA0709F470
:102F8C0004C0E630A0E0FA0739F40E94C1279097FC
:102F9C0011F40E94642828C0E730A0E0FA0721F061
:102FAC00E830A0E0FA0709F404C0E930A0E0FA0721
:102FBC0009F404C0EA30A0E0FA0709F404C0EB30CD
:102FCC00A0E0FA0739F40E94C1275F9711F40E9420
:102FDC0064280AC0EC30A0E0FA0731F40E94C12743
:102FEC005E9711F40E94E7270E9412290E9417296C
:102FFC000E942F290E9459290E945B2924FCCEDCB7
:10300C00E991EFBFF991E991B991A99199918991C0
:10301C0079916991F990199009901895AA93BA939E
:10302C00EA93FA93EFB7EA93A8E1B7E00E9472280B
:10303C00AAE1B7E00E947228E991EFBFF991E991FA
:10304C00B991A9911895E0E0E0931A07E0931B075A
:10305C00E0931807E09319070895F5DF22FC34C0BC
:10306C0020FC19C0689420F8A0913207A13619F4FD
:10307C000E944D2909F003C0662477240BC0A0914F
:10308C003207A03719F40E9490270CF003C0F3010B
:10309C003C963F0118C0E89420F80E944D293CF45E
:1030AC00E0E7E0933207F3013C973F010CC00E942C
:1030BC0090274CF4062C072819F4ECE0F0E03F01C3
:1030CC00E1E6E093320716C0ACE1B7E00E9472284B
:1030DC0020FC07C00E9466291C9714F00E94AA2AA3
:1030EC0006C00E9466291B9714F00E94AA2A0E940F
:1030FC00662910DBE0E0E4BD689424F8819B11C0E4
:10310C00E4E5E9BFA0911807B0911907129741F4B3
:10311C000E94B02A22FC02C023FE01C001C049DE7D
:10312C00EDCF0E94B72A089522FC02C023FC01C0F7
:10313C0004C00E94BE2A0E94CB2A22FE04C00E9418
:10314C0066290E94A30F08957EDF22FC02C023FC97
:10315C0001C004C00E94BE2A0E94CB2A22FE14C0C9
:10316C00E89422F80E94A12AA4EBB6E00E94FE2863
:10317C00E4E1EA93A1ECB6E00E94FE28EEE1EA93CA
:10318C00A3ECB6E00E94401E689424F8E0E0E4BD95
:10319C00839B1DC0E4E5E9BFA0911A07B0911B0702
:1031AC001297A1F40E94B02A22FC02C023FE01C097
:1031BC000DC0689422F80E94AA2A0E946629AADAF5
:1031CC000E94A12AA5ECB6E00E94401EE1CF0E940D
:1031DC00B72A39DF08952697E0E0EABBEBBBE3BFE3
:1031EC00E2BFECBFEFBDECE0EEBDE0E0EDBDECBD51
:1031FC00E7BDE6BDEAE7EBBDE1E1EABDE0E0E9BD34
:10320C00E8BDE8E0E2BDE5E0E5BDE0E0E4BDE2EC10
:10321C00E3BDE4E1E9BFEBB7EBBFE0E0EABFE4E517
:10322C00F0E0E883F983E0E0EA83EB83EC83ED8361
:10323C00DE010E94BE197894E0E2F0E0E0932007F2
:10324C00F0932107ECE1F0E0E0932207F0932307E1
:10325C00E2E1F0E0E0932407F0932507EBE7F0E0E0
:10326C00E0937207F0937307E7E3F0E0E0937407E1
:10327C00F09375074FDBE5E4EA93E0E0EA93E8EFBF
:10328C00F2E00E94A52A0E94CB2A0E94F928A2ED06
:10329C00B6E00E94401E82DB819B02C0DEDE06C0CF
:1032AC00829B02C041DF02C083994EDFF4CFFFCF77
:1032BC00AA93A998AB98EFEFEABBE881EBBB0000AF
:1032CC000000000000000000000000000000AB9AAD
:1032DC0000000000A99ACBC01A93A998AA98E0E024
:1032EC00EABB00000000000000000000000000002D
:1032FC00000019B3AA9AA99AE12F19910895A89AD6
:10330C00EBDFE370E330E1F70895AA93F8DFA898B8
:10331C00A8810E945E19ABC0F2DFA898DDDF08958A
:10332C00AA93EDDFA8810E945E19A1C0BA93AA935B
:10333C00A881EBDFA981E9DFA4E2F2DF03C5AA9340
:10334C00A881EEE1EA9FF001E052FE4FDF01E98136
:10335C00E695E695E695F0E0AE0FBF1FE7DFA5EC2E
:10336C00DFDFDADFEFC4AA93A881CFDFA4EC7EC045
:10337C00BA93AA93A19AA99AA29AAA9AA39AAB9A37
:10338C00A09AA49AAC98AAE0B0E00E94CE2CAC9A79
:10339C00AAE0B0E00E94CE2CA0E00E94D72AA0E4C4
:1033AC00BFDFAEE10E94D72AA1E4BADFA0EEADDF09
:1033BC00A1E0ABDFA2E4B4DFAEE10E94D72AA3E424
:1033CC00AFDFA3E00E94D72AA2E2AADFA0E8A8DF21
:1033DC00A1E044D0E1E0E093FB06E0E0E093FC06E2
:1033EC00E1E0E0930107E0930207E881F98130976F
:1033FC00A9F0A881B9810E94702FE093FF06F09389
:10340C00000712960E94702FE0931407F093150793
:10341C00A881B98114960E94702F0AC0E0E0F0E0F8
:10342C00E093FF06F0930007E0931407F093150761
:10343C00E0931607F09317070E94DC2AE1E0E09373
:10344C000B07ECE0F7E0FA93EA93EFEFEA93A8E0CE
:10345C00B0E00E94DE2544D0E1E074C4AA93E88178
:10346C00E03011F0ECE901C0E0E9AE2F59DF219614
:10347C0008951A930A93A0E0B0E058DF00EE11E033
:10348C00F80101501040309729F0A0E03EDFA0EC8D
:10349C0047DFF6CFE0E0EA93A0E04AD40991199116
:1034AC0008950E94DB2F30E0E091FC06E03009F03B
:1034BC003FEFA0EEB1E03ADF00E01FE0F801015071
:1034CC001040309729F0A32F20DFA0EC29DFF6CF96
:1034DC00E0E0EA93A0E02CD40E94E22F2496089519
:1034EC00C8DFDFDF0895AA931A930A93AC81A03F3B
:1034FC0018F4AB81A03818F019810881CEC3EC8187
:10350C00EA93AC811CDF1E2FEC810E94E32A0E2F64
:10351C00EA81E03011F0102B03C0E02FE0951E2360
:10352C00A12F21DF19810881B8C3AA93A981A03FDB
:10353C0018F4A881A03810F0E0E004C4E981EA9303
:10354C00A981FDDE6E2FE9810E94E32AE62311F0AA
:10355C00E1E001C0E0E0F6C3AA931A93ED81EA938F
:10356C00AD810E94EC2A1E2FE981E73011F0E83082
:10357C0039F4EB81EA93AA810E941F26EB830EC0DB
:10358C00E33021F4EB81E095EB8302C0E03009F4E9
:10359C0002C0E93009F402C0EA3021F4EA81E09576
:1035AC001E2302C0E23029F4EA81AB81EA231E2BF0
:1035BC000EC0E13029F4EA81AB81EA231E2707C053
:1035CC00E43029F4EA81E095AB81EA2B1E23A12F8C
:1035DC000E948526AE2FC7DE188126960895AA93E1
:1035EC0027970E94D92FAC89A03F48F4AB89A0380B
:1035FC0030F4AA89A03019F0A989A03009F496C436
:10360C00EA89E695E695E6952E2F2887EA89E770F4
:10361C00EB87E03019F0E885EF5FE8870A89AC8921
:10362C00BB27EA89F0E0AE0FBF1FA13FE0E0BE0769
:10363C0020F0AC89E0EFEA1BEA8BE989EA87AB89D9
:10364C00BB27E989F0E0AE0FBF1FA138E0E0BE0751
:10365C0020F0AB89E0E8EA1BE98BED85E63009F058
:10366C004EC0E889E13009F461C4E33039F4E091EB
:10367C001607F0911707309709F458C4EB85E03022
:10368C0019F4AA890A17D9F0E22FAE85BF85F0E0AC
:10369C000E94F12A1989103091F0322F3F933F5F2D
:1036AC00E885AF91AE1718F40E94F62AF7CFE22FF7
:1036BC00AE81BF81F0E00E94F12A1150ECCF298934
:1036CC00EA85E217D9F0A22FBB27E885F0E00E942B
:1036DC00BB2EAE85BF850E94F12A2F932F5FEA8502
:1036EC00AF91AE1758F430E03F933F5FE885AF9150
:1036FC00AE1718F40E94F62AF7CFEFCF0DC0E930C1
:10370C0011F4E0E003C0EA3039F4EFEFEA87EA9312
:10371C00AE850E941F26EA87EC89E7703E2FE8E011
:10372C00E31B2E2F522FAA892A1710F05A890EC08C
:10373C00303061F0432FAA89A93018F4EA89E21BD2
:10374C004E2FE42FF0E0E85EF84E44913A93A52F0B
:10375C000E9414265E2FAB852A1718F4EB85E21B0A
:10376C00EB87EB85F0E0E85EF84E04900C86E98977
:10377C00E150E98BEF5F09F4E9C010E00C89EE85AC
:10378C00FF85EE83FF83303009F496C04B87AD85FF
:10379C00A63009F055C0EA891E1708F050C00A93EC
:1037AC00AC890E94EC2AE523AE2FE32F0E94992EC0
:1037BC00E9870E94032B1E2EE32FA52F0E94992E22
:1037CC00E095E121A985EA2BE987AA892A1730F42B
:1037DC00E02FE695E695E695ED3140F00E940B2B37
:1037EC00FA93EA93AC850E94662629C0AA89A11B8C
:1037FC00A83010F4EC85EB87085F0A93AC890E9423
:10380C00EC2AAB85EA23AE2FE22F0E94912EEA8799
:10381C00E22FAB850E94912EE095A985EA23AA851B
:10382C00EA2BEA870E940B2B3196EF83F8873197AE
:10383C00FA93EA93AD850E946626185FACCF3BC025
:10384C00EA891E17C0F5ED85E93011F0EA3009F46C
:10385C000DC00E940B2B3196EF83F88731976627AA
:10386C007727DF01CB010E944726EA870A93EC8970
:10387C00EA93E32FAC850E94912EEA935A93A9897F
:10388C006BDEAA892A17B8F4E02FE695E695E69543
:10389C00ED3188F4A11BA83010F4EC85EB87085FA0
:1038AC000A93EC89EA93E22FAC850E94992E0E9430
:1038BC00102B185FC5CF3EC05B87EA891E17D0F569
:1038CC00AA89A11BA83010F4EC85EB87ED85E930B3
:1038DC0011F0EA3009F409C0AD85A63019F4AB85B6
:1038EC00AF3F19F00E94032BEA87AD85A630A1F4F7
:1038FC000E940B2BFA93EA930A93AF890E94EC2A4D
:10390C00AE85EA230E2EEE85E095AD85EA23E029FF
:10391C00AE2F0E94662606C00A93EC89EA93EC85CA
:10392C000E94102BEE81FF813196EE83FF83085F9E
:10393C00185FC3CFEB89EF5FEB8BE885AE85BF8556
:10394C00F0E0EA0FFB1FEE87FF8711CFEFC2AA93BF
:10395C00A981EEE1EA9FF001DF01EA81F0E0AE0F10
:10396C00BF1FE4DCA881A03818F4E881E052E8839A
:10397C00A881CBDCA4ECD4DCD9C10E9439270E94ED
:10398C00D02F1CF0E0E0F0E0DDC1A881B981A03FB0
:10399C00E0E0BE071CF0EFEEF0E0D4C1E881F98165
:1039AC00D1C10E9439270E94D02F1CF0E0E0F0E03A
:1039BC00C9C1A881B981A038E0E0BE071CF0EFE7CF
:1039CC00F0E0C0C1E881F981BDC1AA93E981EA9315
:1039DC00E981EA93A091FB0686DDB4C1AA931A9300
:1039EC00AA81A03F18F4A981A03830F0E0E0F0E003
:1039FC0060E070E018819AC1EA81E7701E2FEA81BD
:103A0C00E695E695E695EA83103011F0EF5FEA83D0
:103A1C00AA81BB2788279927E981FF276627772763
:103A2C000E94C32EEC5FFF4F6F4F7F4F18817EC1FA
:103A3C00BA93AA9323970E94162B8F01002E012A6A
:103A4C0019F4E0E0F0E068C00E941D2B0F820E9488
:103A5C001D2B0E820E941D2B0886EB85A885EA176C
:103A6C0018F4E0E0F0E058C0F8010F5F1F4F5491DC
:103A7C00A885BB27EE27A50FBE1FEB85F0E0EA1744
:103A8C00FB0718F0E0E0F0E047C0EF81E030E1F038
:103A9C00A985BA85EC93E695E695E6954E2FEF81D0
:103AAC00E77009F04F5FA885EB85EA1BF0E0DF01BA
:103ABC00EE81F0E00E94BB2EDF01E42FF0E00E94CB
:103ACC00BB2EE00FF11F28C09801E52FF0E00E0F80
:103ADC001F1FA885AF5FA887A150EB85AE17B0F468
:103AEC00F901E491E695E695E6954E2FF9012F5FE5
:103AFC003F4FE491E77009F04F5FAE81BB27E42F95
:103B0C00F0E00E94BB2E0E0F1F1FE3CFF901E491D2
:103B1C00A985BA85EC93F8010E94E02F2C960895A4
:103B2C00E0E0E093FD06A091FE06BB270E94222B4D
:103B3C00F0E0AE0FBF1FE0910207F0E0AE0FBF1F29
:103B4C000E94292B0895AA9321970E94162B309737
:103B5C0009F454C0AF81AA3009F44BC0EF81EA9349
:103B6C00DE01179665DFAF01309719F40E94E02F44
:103B7C0067C3E0910107AE81EA0F3E2FA091FD06CD
:103B8C00BB270E942E2B013FE0E01E0718F0032FED
:103B9C001127C6DF0E94332BE885EA930E94222B63
:103BAC00EA93E1E0EA935A934A93A7E00E943A2BF6
:103BBC00AE81EA0FEA93E091FE06EA93E0910107E9
:103BCC00EA930E94222B0E943F2B0E943A2BEA93ED
:103BDC00A091FE060E94222BEA0FEA933A93E09101
:103BEC0002070E943F2BFBDCE0EFF0E0E017F1074F
:103BFC0021F496DF0E94E02F23C337C0AF81AA3097
:103C0C0059F1E091FD06E695E695E6953E2FE0919B
:103C1C00FE06E695E695E6952E2F3A932A93A9850E
:103C2C0096DEE32FEE0FEE0FEE0FE093FD06E22F84
:103C3C00EE0FEE0FEE0FE093FE060E94332BE8E042
:103C4C00EA930E943F2B0E943A2BF0E038968F01AA
:103C5C00003FE0E01E0748F000E010E0E091FE06B7
:103C6C00F0E03896DF010E94292B0093FD060E949C
:103C7C00E02FE6C2BA93AA931A93EC81EA93AC8133
:103C8C0057D0A981BA81ED91A983BA831E2FE03058
:103C9C0019F0A12F58DFF5CF188125960895AA9316
:103CAC000E94DB2FAC81A53000F5ED81FE810591E2
:103CBC000E94482B15910E94482B25910E94482B5D
:103CCC003591ED83FE83E885EA93E885EA930A93C0
:103CDC002A93E1E0EA93EA85FB85FA93EA93AB85B4
:103CEC007EDC0A93A22F7ADE04C0E0E0F0E060E014
:103CFC0070E00E94E22F29960895AA93EA81EA9334
:103D0C00EA81EA93E0910407AA81EA2319F0E09191
:103D1C00FB0602C0E091FC06AE2FE5DBE881EE0F5E
:103D2C00E883E03011F4E1E0E883E881239608951C
:103D3C00AA93A981BB2721DEE093FD06A881BB27AE
:103D4C000E94292B22960895AA932B970E94D92F73
:103D5C00AC89BB2712DEEC8BAA89BB270EDEEA8B63
:103D6C00AB89BB271EDEEB8BA989BB271ADEE98B3F
:103D7C00EA89E093FD06E989E093FE06E1E0E88735
:103D8C00E989AB89EA1771F51C89AA891A1731F4EC
:103D9C001A93EC89EA93A1E0B0DFC8C0AA891A177C
:103DAC0030F4EA89E11B0E2F41E050E006C0AA89ED
:103DBC00E12FEA1B0E2F4FEF5FEF3B89E0E0EE8324
:103DCC000E944B2B38F41A933A933395AA8595DFBE
:103DDC00EF83F6CFEF81E887140FE02F0150E0302E
:103DEC0061F7A4C0EA89AC89EA1739F53B89A9893E
:103DFC003A1730F4E989E31B2E2FE1E0F0E006C01E
:103E0C00A989E32FEA1B2E2FEFEFFFEFED87FE873B
:103E1C001C89E0E0EE830E944B2B30F41A9313952F
:103E2C000E94532BEF83F7CFEF81E887ED853E0F90
:103E3C00E22F2150E03061F779C0E0E0EE830E9480
:103E4C004B2B08F073C01C893B89E1E02E2F0E2F01
:103E5C00AA89BB27EC89F0E0AE1BBF0BAD01552343
:103E6C002AF40FEFFA010E94852EAF01FA01EE0F32
:103E7C00FF1FEF87F88BA989BB27EB89F0E0AE1BFE
:103E8C00BF0BAD87BE87AE85AA233AF42FEFED8525
:103E9C00FE850E94852EED87FE87ED85FE85EE0F53
:103EAC00FF1FEB87FC871A933A93A1E026DFE88784
:103EBC00E0E0E987EA87AD85BE854A175B07BCF071
:103ECC00100FEB85FC850E94572BA985BA854A17E4
:103EDC005B072CF4320FAF85B8890E945E2B1A93C6
:103EEC000E94532BE887EA89E11751F718C0320F6B
:103EFC00EF85F8890E94572BED85FE85A985BA853B
:103F0C00EA17FB072CF4100FAB85BC850E945E2BC7
:103F1C001A930E94532BE887E989E31741F7EB8941
:103F2C00EF5FEB8BE989EF5FE98B89CF0E94E02F84
:103F3C0065960895BA93AA9323970E94D92FED857D
:103F4C00E887E0910307EF83E091FB06EE83AA89F3
:103F5C00BB27EF850E942E2BA989BB27E8890E94DD
:103F6C00652BE8890E946C2B71F0E885E078F1F400
:103F7C00AD85BE85EAE5F0E00E94742B1CF00E9432
:103F8C007D2B0CF413C0332312F00E94822BAF81D3
:103F9C00A23020F02230E0E03E070CF407C00E9473
:103FAC00862B21F40A93A22FA1500FDDE885E87827
:103FBC00E83891F0E885E078C9F4AD85BE85A25F5C
:103FCC00BE4F0E948F2B3CF0AD85BE85A25FBE4FCD
:103FDC000E94942B0CF40AC00E94992B38F00E947A
:103FEC00A02B21F40A93A42FAF5FEFDCAA89BB2787
:103FFC00EF85F0E0AE1BBF0B8D0111230AF445C019
:10400C00E885E278E23891F0E885E07811F5AD8545
:10401C00BE85A65ABF4F0E948F2B3CF0AD85BE8546
:10402C00A65ABF4F0E94942B0CF413C0332312F0EA
:10403C000E94822BAF81A23020F02230E0E03E07BC
:10404C000CF407C00E94862B21F40A93A22FA150D6
:10405C00BCDCE885E478E43871F0E885E078A9F414
:10406C00AD85BE85EEE0F1E00E94742B1CF00E9441
:10407C007D2B0CF40AC00E94992B38F00E94A02BC7
:10408C0021F40A93A42FAF5FA0DCAA89BB27E8898F
:10409C000E942E2BA989BB27EF850E94652BEF85EB
:1040AC000E946C2B81F0E885E078F1F4EB85FC85BF
:1040BC00AD85BE85AE17BF072CF0E985FA85EA17EA
:1040CC00FB070CF411C033237AF00E94822BAF81D2
:1040DC00A23050F0E02FEE5F0E94A92B29F4E02FC4
:1040EC00EF5FEA93A22F71DCE885E878E83871F08D
:1040FC00E885E078C1F4AD85BE85E8E6F1E00E9484
:10410C00742B1CF00E947D2B0CF40DC00E94992B7B
:10411C0050F0E02FEE5F0E94B12B29F4E02FEF5FFF
:10412C00EA93A42F52DCAA89BB27E889F0E0AE1BE6
:10413C00BF0B8D0111230AF450C0E885E278E238F8
:10414C0071F0E885E07809F5AD85BE85E4EBF0E02B
:10415C000E94742B1CF00E947D2B0CF416C0332390
:10416C00A2F00E94822BAF81A23020F00230E0E05E
:10417C001E070CF40AC0E02FE2500E94A92B29F470
:10418C00E02FE150EA93A22F20DCE885E478E438B4
:10419C0091F0E885E07809F5AD85BE85AC54BF4F4C
:1041AC000E948F2B3CF0AD85BE85AC54BF4F0E9456
:1041BC00942B0CF412C00E94992B20F00230E0E0FA
:1041CC001E070CF40AC0E02FE2500E94B12B29F418
:1041DC00E02FE150EA93A42FF8DB0E94E02F6396C6
:1041EC000895AA930E94DB2FAF81BB27ED81F0E0ED
:1041FC00AE1BBF0BC2DB1E2FAF81BB27ED81F0E0E6
:10420C00AE0FBF1FBADB0E2FAE81BB27EC81F0E0E7
:10421C00AE1BBF0BC6DB3E2FAE81BB27EC81F0E0A3
:10422C00AE0FBF1FBEDB2E2F1A933A930A93A32F08
:10423C008BDD1A932A930A93A22F86DD0E94E22F1C
:10424C0028960895AA930E94D92FA985A03F18F407
:10425C00A885A03808F04FC050910307E52F5150A6
:10426C00E03009F448C0EF81E03009F444C0EF813C
:10427C00E150EF83EF5F0E2FF0E0A5E0B0E0AE1B56
:10428C00BF0BFD010E94A12E0E94A62E9F0110E0E3
:10429C00AE81A03459F40E94B92B1A93A02FA1DF40
:1042AC000E94B92B0A93A12F9CDF0FC00E94B92B3F
:1042BC001A930A93EA85F0E0FA93EA93E0E0F0E0CF
:1042CC00FA93EA93A0E0B0E035DE1F5F33231AF4D3
:1042DC00E12FF0E008C00150A12FBB27E02FF0E048
:1042EC00AE1BBF0BFD01EE0FFF1F31962E0F3F1FB4
:1042FC00011770F6B3CF0E94E02F2A960895AA9367
:10430C000E94DB2F1091FB06E09103070E2FE0912A
:10431C0004073E2FE0910B07E093FB060E94DC2A7A
:10432C00EE81EA93EE81EA93EE81EA93A0E48ADFD0
:10433C001093FB0600930307309304070E94E22FAF
:10434C0027960895BA93AA931A930A93AA81BB81CC
:10435C0012960E94702F309729F1AA81BB81149676
:10436C000E94702F8F01309761F00230E0E01E0741
:10437C0080F0F80131978F01AA81BB811496ED93DF
:10438C00FC93AA81BB8112960E9472283197AC8152
:10439C00A083AA81BB810E94702FFF2312F00E9480
:1043AC00722806C0AA81BB81EFEFFFEFED93FC935F
:1043BC00198108810C94EC250E94BE2BE0E8EA835D
:1043CC00EFE3EB830E94DB2FEE85FF85EF3FAFEF32
:1043DC00FA0749F4E885F985FA93EA93A0E8BAE17B
:1043EC000E94EE25B7C0EF3FAFE7FA0749F4E88526
:1043FC00F985FA93EA93A1E8BAE10E94EE25AAC0E6
:10440C00AB85A73010F0E6E0EB871B85E12F115050
:10441C00E03019F00E94C52BF9CFEC85FD856E8537
:10442C007F850E94CC2F21F430E00E94C52B2DC03B
:10443C003B850E94D42B09F008F40BC00E94C52BBD
:10444C000E94D42B28F00E94DF2B0E94E42BF8CF83
:10445C000DC00E94D42B40F40E94DF2B0E94F02B45
:10446C000E94F72B3150F5CF0E94C52BEC85FD85B2
:10447C006E857F850E94FC2B0E94F72B0E94D42B0B
:10448C0020F00E94DF2B0E94E42B10E0EB85E1175B
:10449C00A8F1AC81BD818E819F810E94032C0E946A
:1044AC00FC2BDF01CB010E943325EC83FD836E8353
:1044BC007F830E94DF2B0E941C2E0E940B2D0E2F3F
:1044CC000E940A2C0E94112CFF27662777270E9436
:1044DC00442DAC81BD818E819F810E94CE2D0E9486
:1044EC00DF2B0E94162C0E94F72BE12F1F5FE03070
:1044FC0069F60E940A2CEEE2EC93C8CF0E941B2CAA
:10450C003197AA85A08330302CF43195A885B985D4
:10451C00EDE203C0A885B985EBE2EC930E941B2C5D
:10452C000E941B2C3197BF01A32FEAE00E94F62EAC
:10453C00E05DDB01EC930E941B2C3197BF01A32F94
:10454C00EAE00E94382FE05DDB01EC93A885B98589
:10455C00E0E0EC930E94E22F60960895BA93AA9340
:10456C00EF9761970E94D92F10E0FE01E85AFF4F98
:10457C000190F081E02DE887F987FE01EA5AFF4FA0
:10458C000190F081E02DEE83FF83AE81BF81E0E0EE
:10459C00F0E0ED93FC93DE01A45ABF4F0E94722809
:1045AC003197E4912E2FE03009F4E9C1E12FE0308E
:1045BC0039F4253211F411E002C00E94212CDEC125
:1045CC00E130C1F4253219F40E94212CD6C112E03D
:1045DC00E0E0ED8B00E02D3211F401E0CFC12B3285
:1045EC0019F4EBE2ED8BCAC1203219F4E0E2ED8B49
:1045FC00C5C102C0E23039F450E013E0203311F4AD
:10460C000068BCC102C0E33091F4203310F02A33AF
:10461C0008F007C0AAE05A9F502DE22FE0535E0F1E
:10462C00ADC140E02E3211F414E0A8C10FC0E4304B
:10463C0099F4203310F02A3308F008C00062AAE085
:10464C004A9F402DE22FE0534E0F98C12C3619F49F
:10465C00026015E093C103C0E53009F08FC1E22F71
:10466C00E33659F40E94282C0E942F2C0E94282CEF
:10467C00A481AA930E94362C80C1E53411F0E53652
:10468C0009F403C0E63609F048C0FE017696EE87C1
:10469C00FF870E943C2C0E94742F0E94432C0E9486
:1046AC00482CAD85AA2332F0AD89AB3259F0A0323B
:1046BC0081F017C00E944A2C0E94D82C0E94432CD7
:1046CC00EDE2ED8B07FF05C0ED89EA930E94362CD5
:1046DC0008C0EE85FF853196EE87FF873197AD894F
:1046EC00A08305FF46E0263651F40E944A2C0E9416
:1046FC00892F4A93AB89BC890E94982609C00E94D5
:10470C004A2C0E94892F4A932A93AC89BD8954DE86
:10471C00FE0176960E944F2C1EC0E33739F40E949E
:10472C00482C0E94572C0E944F2C0EC0E037C1F42D
:10473C000E94482C0E94572CEE87FF87AE85BF85C0
:10474C000E9407261E2F08600F77403011F041178A
:10475C0008F001C0142F40E0E0E0EC8B30E06DC0BD
:10476C00E43611F0E93611F4046002C0E537A1F427
:10477C00EAE0EC8B01FF08C0E0E0FAEC6AE97BE3CD
:10478C000E945C2C1AE022C0E0E1F7E260E070E0ED
:10479C000E945C2C15E01AC0E83511F4086003C0C7
:1047AC00E83709F0EAC0E0E1EC8B01FF08C0E0E07B
:1047BC00F0E060E070E10E945C2C18E007C0E0E0E3
:1047CC00F0E160E070E00E945C2C14E0403011F0ED
:1047DC000F7701C041E001FF08C00E94482C0E94E5
:1047EC003C2C14960E94742F0FC002FF07C00E942D
:1047FC00482C0E94572C0E94B12E06C00E94482CB7
:10480C000E94572C66277727EA87FB876C877D8762
:10481C0002FF12C0AD85AA2342F40E944A2C0E94CA
:10482C00892E0E94432CEDE2ED8BED89E03019F0DE
:10483C001F5F4F5F01C00B7F342F00FD14C0151795
:10484C0010F4351708F00FC007FF08C002FF04C0B2
:10485C000B7F2D89115001C020E301C020E20E9482
:10486C00212C5150ECCF141790F4006102FF06C0BC
:10487C000E94612C09F0515011504150E0E3EA9331
:10488C000E94362C503009F051504150ECCF312F52
:10489C00EC89E030B9F43030A1F003FF06C0EE85AE
:1048AC00FF852591EE87FF8705C0AE85BF852D91CD
:1048BC00AE87BF870E94212C503009F051503150E7
:1048CC00EACF51C00E94732C0E94132F2E2F2A3036
:1048DC0030F003FF02C0295C01C0295A01C0205DE1
:1048EC0004FD21C0213360F4A889B9898A899B8988
:1048FC00A130E0E0BE07E0E08E07E0E09E0709F49F
:10490C000BC0431740F4531710F000FF01C010C048
:10491C0020E207FF08C020E3006102FF04C00E94F0
:10492C00612C09F051500E94212C503009F051504B
:10493C0031500E94732C0E94522F0E94432CEC8900
:10494C00A889B9898A899B89FF27662777270E94BE
:10495C00132F0E945C2CE889F9896A897B890E9453
:10496C00CC2F09F0AFCF00FF08C0503031F05150C0
:10497C00E0E2EA930E94362CF8CF10E00CCEAE8128
:10498C00BF810E94702F0E94E02FEF966F960895C2
:10499C00FF92F82E26970E94DB2F0E947C2C3097DA
:1049AC0019F4EFEFFFEF23C0DE0116960E94812E63
:1049BC008D010E947C2CEE83FF83E0E0E887E98781
:1049CC00DE011A960E94812E0E94702FFA93EA93B0
:1049DC001A930A93E8EAF1E2FA93EA93DE011A9643
:1049EC00BDDD9F01AE81BF81E0E0EC93F9010E9437
:1049FC00E22F2A96FF9008950E948E2F7B816A8168
:104A0C00F981E88177FB770F67FD7160972F9E57CF
:104A1C0081F078F0983190F4AA27BB278827089466
:104A2C008795B795A7959A95D1F7EA23FB23682329
:104A3C0005C0E8947727EE27FF2766276F777695D2
:104A4C0008F4606877F9A991B99189919991EA175D
:104A5C00FB076807790797FB08950E94832C0E9437
:104A6C0002250E94842F21F40E947A2F0C94832615
:104A7C00DEF70E947A2FA0E0B0E080E89FE30E946E
:104A8C00772D0C9483260E948E2F24971A9310E076
:104A9C000E94882CE3E8F9EF62E27EE30E94CE2DBF
:104AAC000E948D2CDADF0E94882C0E94162C0E940A
:104ABC008D2CE0E0F0E060E07FE30E94612E09F0D5
:104ACC0008F409C00E94922CA0E0B0E080E09FE3C3
:104ADC000E94972C11E00E94882CE0E0F0E060E846
:104AEC007EE30E94612E09F008F408C00E94882C15
:104AFC00E0E0F0E060E07FE30E94972C103041F0A2
:104B0C000E94922C0E94D82CED83FE836F837887B1
:104B1C000E94922C0E94882C0E94CE2DE983FA834D
:104B2C006B837C83A1EBB4EC86E292E40E94CE2DE5
:104B3C00DF01CB01EDE1F5EE6DE272E40E94162C83
:104B4C000E949E2CACE4B3E584E091E40E947E2D9F
:104B5C000E94882C0E94CE2D7F936F93FF93EF932E
:104B6C00E981FA816B817C81A1E1BDEE8EED9FE341
:104B7C000E947E2D0E949E2CAEE5BBE788EA9FE347
:104B8C000E947E2DAF91BF918F919F910E941C2E00
:104B9C001881299608950E94832CEBEDFFE069ECB7
:104BAC007FE30E94772DDF01CB016DDF0C94832610
:104BBC00BA93AA93B981A881109631F0FC81EB814C
:104BCC006A8161931197E9F7EB81FC812596089531
:104BDC00BA93AA93E991F991A991B991CD01059054
:104BEC000D920020E1F7FC010895BA93AA93A991C4
:104BFC00B991EE27FF276D91662311F03196FBCF0B
:104C0C000895BA93AA93AA27BB27E991F991059025
:104C1C00002011F01196FBCFFD010895AA93E881B5
:104C2C00F0E0E85EF84EA491E9810E94912E229664
:104C3C000895AA931A93E981E73011F0EA3019F438
:104C4C001091FB0609C0E93019F41091FC0604C060
:104C5C00E830A1F410910B07E091FC06E03049F02C
:104C6C00103019F0EFEF188129C0EA81E095188116
:104C7C0025C0103019F4E0E0188120C0EA811881B9
:104C8C001DC0BA93AA93EA81E13021F4E881F9813D
:104C9C00E49114C0E23029F4A881B9810E94A52FB7
:104CAC000DC0E33041F4A881B981E0911407F09173
:104CBC001507099503C0A881B981EC912396089535
:104CCC00AA93EB81E03029F4E881A981BA81EC93B5
:104CDC0014C0E23031F4E881A981BA810E94B12F6D
:104CEC000CC0E33051F4E981FA81FA93EA93AA817A
:104CFC00E0911607F0911707099524960895AA9349
:104D0C00A991A0FBE7F9A1FBE6F9A2FBE5F9A3FB4E
:104D1C00E4F9A4FBE3F9A5FBE2F9A6FBE1F9A7FB97
:104D2C00E0F9089525D5E0E0EA83EFE3EB831A93ED
:104D3C000A93EB85FC85EF3FAFEFFA0731F4FFD513
:104D4C00A8E8BAE10E94EE258AC0EF3FAFE7FA0768
:104D5C0031F4F5D5A9E8BAE10E94EE2580C0AC8506
:104D6C00AA2352F4E985FA856B857C850E94D82CA0
:104D7C00EBD5EFD5EDE2EC93A885A73010F0E6E08B
:104D8C00E8871885E12F1150E03021F0E9D535D5B1
:104D9C00ECD5F8CFEFD50E947E2DD6D510E0E0E013
:104DAC00F0E060E87FE3E1D5E5D50E94612E68F084
:104DBC00D7D510D5DAD51F5F173230F0C0D5ADE896
:104DCC00BAE10E94EE254BC0EFCF103021F4C1D5D3
:104DDC00E0E3EC9320C0E12F1150E030E1F0C0D5BE
:104DEC000CD504D5DF01CB010E943325BED5C2D52D
:104DFC000E941C2E0E940B2D0E2FABD50CD5F0E073
:104E0C00AFD50E94B12E0E94442D0E94CE2DBBD551
:104E1C0007D59AD5E0CFE885E030E9F09AD5EEE2F7
:104E2C00EC93E885E150E887EF5FA9F0ACD5D2D4DC
:104E3C008BD5E985FA856B857C850E940B2D0E2F11
:104E4C0088D5E9D4F0E09FD50E94B12E0E94442D64
:104E5C00E7D47AD5E6CFAE81BF81E0E0EC9319813F
:104E6C0008812D960895BA93AA93A881B9810895C3
:104E7C00DE01A85BBF4F0D90BC91A02D0895FE01E3
:104E8C00E45BFF4F0190F081E02D31970895AE0F58
:104E9C00BF1F0E94702F0895EA0FFB1FDE01A05C5C
:104EAC00BF4FED93FC930895DE01A05CBF4F0D90B6
:104EBC00BC91A02D0895FE01E05CFF4F0190F081A4
:104ECC00E02D0895DE01A05CBF4FED93FC93ECCF79
:104EDC00EBDFEFE1F0E00895EEE1F0E00E94442F0B
:104EEC000895E2DFEEE1F0E00E940E2F0895DCDF82
:104EFC00F3CFEE8DFF8DDE011696EE0FFF1FC7CFA1
:104F0C0044245524F40131964F01ECE3F0E08E1665
:104F1C009F060895ECE0F0E06E167F060895EDE034
:104F2C00F0E06E167F060895E1E6E0933207662402
:104F3C007724A6E2B7E0ED91FD913196FE93EE93C6
:104F4C00AEE1B7E0ED91FD913196FE93EE93A09119
:104F5C001E07B0911F0717970895E0E0E0931E0716
:104F6C00E0931F070895E0912807F0912907E1309D
:104F7C00A0E0FA070895A0912607B091270708959D
:104F8C00E1E0F0E0E0932607F0932707A8E2B7E012
:104F9C00ED91FD913196FE93EE93A0912807B0917F
:104FAC0029071D970895E1E0F0E0E0932807F093BE
:104FBC002907AAE2B7E0ED91FD913196FE93EE93AD
:104FCC000895E1E0F0E0E0932607F0932707EBCF9C
:104FDC00E8E1F0E06E167F06089566247724A6E2D9
:104FEC00B7E0ED91FD913196FE93EE93AEE1B7E013
:104FFC00ED91FD913196FE93EE93A0911E07B09129
:10500C001F0717970895E0912607F0912707E09363
:10501C007A07F0937B07E0912807F0912907E0933A
:10502C007807F0937907E0912A07F0912B07E0932A
:10503C007607F0937707E0917807F0917907FA9368
:10504C00EA93E0917A07F0917B07FA93EA93A091A7
:10505C007607B09177070E940F0FACE7B7E00E947C
:10506C00C22FE0918007F0918107E0932C07F09319
:10507C002D07E0917E07F0917F07E0932E07F093C8
:10508C002F07E0917C07F0917D07E0933007F093B8
:10509C0031070895A6E2B7E0ED91FD913196FE93AC
:1050AC00EE93AEE1B7E0ED91FD913196FE93EE9368
:1050BC00A0911E07B0911F0717970895E1E0F0E04B
:1050CC00E0932607F0932707A8E2B7E0ED91FD9156
:1050DC003196FE93EE930895ED91FD913196FE93EA
:1050EC00EE930895ACE2B7E0F7CFE0912E07F09184
:1050FC002F070895A0912C07B0912D070895E1E09A
:10510C00F0E0E0932C07F0932D07AEE2B7E0E4CF8C
:10511C00A0912E07B0912F071D970895E1E0F0E0C4
:10512C00E0932E07F0932F07A0E3B7E0D5CFE091E3
:10513C002C07F0912D07E0938007F0938107D5DFC2
:10514C00E0937E07F0937F07E0913007F0913107F1
:10515C00E0937C07F0937D07E0917E07F0917F0749
:10516C00FA93EA93E0918007F0918107FA93EA931E
:10517C00A0917C07B0917D070E944F0EA6E7B7E087
:10518C000E94C22FE0917A07F0917B07E0932607EB
:10519C00F0932707E0917807F0917907E0932807BF
:1051AC00F0932907E0917607F0917707E0932A07AF
:1051BC00F0932B070895EAE0EA93EEE1EA93E0918D
:1051CC001E07F0911F07A2E8B7E0EE0FFF1F5FCE9E
:1051DC00EAE0EA93E4E1EA9388DF3197A0E9B7E0EB
:1051EC00EE0FFF1F54CEE0E0EA93EFE6EA9308954A
:1051FC000E94401EE0E0EA930895E0932C07F093A0
:10520C002D070895E0932E07F0932F070895E09350
:10521C003007F09331070895E0912807F0912907A2
:10522C000895FA93EA93E0912607F0912707FA93F1
:10523C00EA93A0912A07B0912B070E940F0FACE7BD
:10524C00B7E00E94C22F0895E0917E07F0917F078E
:10525C000895E0918007F09181070895E3E3F7E06A
:10526C00FA93EA930895F3010E94B12E0E94892FBC
:10527C00F4010E94B12E0E94892FF2010E94B12EDE
:10528C000E94892F8CE00E94CE2460960895ECE059
:10529C00F0E0E615F7050895EA93E8E7EA93A3E34F
:1052AC00B7E00C94401EA9DFCFCFACDFE0917C07B8
:1052BC00F0917D07ACCF0E94B12E0E94892F0895EA
:1052CC00A0911C07B0911D070895EBE4F0E0E419E0
:1052DC00F509EE0FFF1F0E94B12E0E94442DA6E58A
:1052EC00BEE089E490E40E94CE2DDF01CB01E0E02A
:1052FC00F0E060E772E40E941C2EDF01CB01089500
:10530C000E94B62E0E94952F0E94CE2D0895E091FA
:10531C004207F09143076091440770914507089547
:10532C00A0914A07B0914B0780914C0790914D0783
:10533C000895E0914607F0914707609148077091F6
:10534C0049070895A0914E07B0914F0780915007DF
:10535C00909151070895E1E0E0930307EFEFE0939C
:10536C000407E0917207EA93E0917407EA93E091E5
:10537C007207F091730708950E94B12E0E94442D7C
:10538C000E947E2D0E940B2D0895EA93E0917407E4
:10539C00F09175070895F2010E94B12E0E94442DE0
:1053AC00DF01CB01E0E0F0E060E772E40E941C2E2C
:1053BC00D4010E94B62E0E94952F0E947E2DA0E053
:1053CC00B0E086E992E40E94982F0E94772DA0E02D
:1053DC00B0E080E090E40E94CE2DA6E5BEE089E42A
:1053EC0090E40E94CE2DDF01CB01E0E0F0E060E71D
:1053FC0072E40E941C2EDF01CB010895E09152074C
:10540C00F091530760915407709155070895A0913E
:10541C006607B091670780916807909169070895B6
:10542C00E0915607F0915707609158077091590712
:10543C000895A0916207B0916307809164079091E1
:10544C0065070895E2E0E0930307EFEFE0930407AC
:10545C00E0917207EA93E0917407EA93E091720786
:10546C00F09173070895F4010E94B12E0E94442D0F
:10547C00DF01CB01E0E0F0E060E772E40E941C2E5B
:10548C00D5010E94B62E0E94952F0E947E2DA0E081
:10549C00B0E080E490E40E94982F0E94772DA0E069
:1054AC00B0E080E090E40E94CE2DA6E5BEE089E459
:1054BC0090E40E94CE2DDF01CB01E0E0F0E060E44F
:1054CC0071E40E941C2EDF01CB010895E0915A0774
:1054DC00F0915B0760915C0770915D070895A09156
:1054EC006E07B0916F0780917007909171070895C6
:1054FC00E0915E07F0915F07609160077091610722
:10550C000895A0916A07B0916B0780916C079091F8
:10551C006D070895E3E0E0930307EFEFE0930407D2
:10552C00E0917207EA93E0917407EA93E0917207B5
:10553C00F09173070895E0E0EA93EA930895FA93E3
:10554C00EA93A0E00C94551EE0E0E0931C07E09376
:10555C001D070895E4E1E9BF0E942918E0E0E4BDCD
:10556C000895E89424F8E4E1E9BFE0E0E4BD08958F
:10557C00E89423F8689421F80E94761AE5E4EA93FB
:10558C00E0E0EA93E8EFF2E0DACFE0E0E0930B073B
:10559C00E0917207EA93E0917407EA93A0E20C940D
:1055AC0085210E948B19A0E00C948B19E1E0E0930B
:1055BC000307EFEFE09304070895E770A7E00E945C
:1055CC00A12FEA1BA1E00E94912E08950E94A5191B
:1055DC00AE2F0C948526EA0FFB1FEE83FF830895F4
:1055EC00E889EA93EF81F8853196EF83F887319754
:1055FC00FA93EA93A0E00C946626E889EA93AF81CB
:10560C00B885882799270C944726E889EA93EF8177
:10561C00F8850895EA93EE85EA93A9890C94B21A59
:10562C000E94D92FE091FF06F09100070895F80130
:10563C000F5F1F4F04900895E091FF06F091000753
:10564C003196E49108950E94D71CE093FE060895CC
:10565C00F0E0EA0FFB1F8F010895E091FD06EA933D
:10566C00E091FE06EA9308950E94F51AE091FD067A
:10567C000895EA93E0E0EA93E0E0F0E0FA93EA932D
:10568C00A9E00895ED83FE830895AE81AF5FAE83EC
:10569C00A150E0910307AE1708953A93AA850C9494
:1056AC00831EA985BA85EA0FFB1FE987FA8708953F
:1056BC00E985FA85EA1BFB0BE987FA870895F0E088
:1056CC00AE1BBF0B9D01A989BB270895F0E0EA0F23
:1056DC00FB1FAF01E885E178E1380895EA1BFB0B6D
:1056EC000F01DF01EB85FC85AE17BF070895E98537
:1056FC00FA85E015F10508950A93A22F0C94EB1C82
:10570C000A93A22FA2500E949B1AAE2FEE81EA1789
:10571C000895EB85FC85AE17BF070895E985FA85DA
:10572C00EA17FB0708950A93A42F0E94EB1CAF8184
:10573C00A23008950A93A42FAE5F0E949B1AAE2F3D
:10574C00EE81EA170895EA93A22F0E949B1AAE2FBE
:10575C00EE81EA170895EA93A42F0E949B1AAE2FAC
:10576C00EE81EA170895E985EA93E985EA930895AD
:10577C00BA93AA932497E0E0E883E9830895AC8177
:10578C00BD818E819F81E0E0F0E060E271E40E94D7
:10579C00CE2DEC83FD836E837F830895EC81FD8198
:1057AC006E817F81AC85BD858E859F850E94612E23
:1057BC000895AC85BD858E859F850895EDECFCEC38
:1057CC006CEC7DE30E94CE2DEC87FD876E877F8786
:1057DC003F5F0895E0E0F0E060E271E40E94CE2DBE
:1057EC000895EC87FD876E877F870895A0E0B0E071
:1057FC0080E09FE30E947E2D0895EDECFCEC6CECB8
:10580C007DE30E94CE2D0895A885B9851196A887B1
:10581C00B98711970895E02FE05DEC93E02F089580
:10582C000E94982F0E94772D0895E885F98531966E
:10583C00E887F98708952A93AF81B885E985FA85B9
:10584C0009950895FE01E65AFF4F0190F081E02D75
:10585C0008953497DE01A65ABF4FED93FC9308953B
:10586C00AF81B885E985FA8509950895DE01A65AB8
:10587C00BF4F0D90BC91A02D0895EA87FB876C87D4
:10588C007D870895DFDFE5CFEA85FB856C857D8517
:10589C000895EE87FF87AE85BF850E94FB251E2FDE
:1058AC000895E4DF14960E94702F0895E88BF98B0D
:1058BC006A8B7B8B08950B7FED89EA93DE01A95AE5
:1058CC00BF4F0D90BC91A02DFE01E75AFF4F0190E8
:1058DC00F081E02D099550300895E889F9896A899D
:1058EC007B89AA85BB858C859D850895DE011C96D8
:1058FC000E94812E0E94702F08950E948E2F0E946C
:10590C007F2F0895AD81BE818F8198850895ED8399
:10591C00FE836F837887F6CFED81FE816F8178856A
:10592C0008950E94772DED83FE836F837887089509
:10593C00A981BA818B819C810E94CE2D0895EE8124
:10594C00FF81FA93EA930895E987FA876B877C873E
:10595C000895AE81BF811196AE83BF8311970895D0
:10596C00AA81BB818C819D810895EA83FB836C8322
:10597C007D830895EA81FB816C817D81A985BA853F
:10598C008B859C850895A985BA858B859C85089502
:10599C00109639F080ED97E00197F1F7A8951197E3
:1059AC00C9F7089530976040704009F07058089519
:1059BC00552342F4503811F4E0FF04C03196691FAE
:1059CC00791F6BF050E8572711F45F93CFC05F3FFE
:1059DC0031F0660F000C57956795752F08955F93FE
:1059EC0000200AF0CFC0C8C050E8192E1522880F2D
:1059FC00991F9527550F879550E8072E0522660F9E
:105A0C00771F7527550F67950895689401C0E89422
:105A1C005F93F2DF703818F07F3F08F4A7C056E1AF
:105A2C00571BAAF4519558300EF4593030F0EFEF63
:105A3C00FFEF6FEF7FE777F91AC077275523B9F09F
:105A4C00EE0FFF1F661F771F5A95D1F710C07727EF
:105A5C00583028F0EF2FF62F672F5850F9CF5523D9
:105A6C0031F076956795F795E7955A95D1F7002023
:105A7C000AF449D15F910895689401C0E894309775
:105A8C0060407040B1F0002426F0772312F40094AB
:105A9C003AD1172E7EE1112032F07A95EE0FFF1FCE
:105AAC00661F111CF9CFEF2FF62F612D5F938ADF44
:105ABC005F9108954F93AF01FD01DA01AB01BC0179
:105ACC00CA01402D012C142E4F910895EA0FFB1F93
